{
  "contractName": "Medical",
  "abi": [
    {
      "constant": true,
      "inputs": [
        {
          "name": "",
          "type": "address"
        }
      ],
      "name": "patients",
      "outputs": [
        {
          "name": "",
          "type": "bool"
        }
      ],
      "payable": false,
      "stateMutability": "view",
      "type": "function"
    },
    {
      "constant": true,
      "inputs": [
        {
          "name": "",
          "type": "uint256"
        }
      ],
      "name": "records",
      "outputs": [
        {
          "name": "admissionNo",
          "type": "string"
        },
        {
          "name": "name",
          "type": "string"
        },
        {
          "name": "hospital",
          "type": "string"
        },
        {
          "name": "doctor",
          "type": "string"
        },
        {
          "name": "prescription",
          "type": "string"
        }
      ],
      "payable": false,
      "stateMutability": "view",
      "type": "function"
    },
    {
      "constant": true,
      "inputs": [],
      "name": "owner",
      "outputs": [
        {
          "name": "",
          "type": "address"
        }
      ],
      "payable": false,
      "stateMutability": "view",
      "type": "function"
    },
    {
      "anonymous": false,
      "inputs": [],
      "name": "CreatedPatientEvent",
      "type": "event"
    },
    {
      "constant": true,
      "inputs": [],
      "name": "getNumPatients",
      "outputs": [
        {
          "name": "",
          "type": "uint256"
        }
      ],
      "payable": false,
      "stateMutability": "view",
      "type": "function"
    },
    {
      "constant": false,
      "inputs": [
        {
          "name": "_admissionNo",
          "type": "string"
        },
        {
          "name": "_name",
          "type": "string"
        },
        {
          "name": "_hospital",
          "type": "string"
        },
        {
          "name": "_doctor",
          "type": "string"
        },
        {
          "name": "_prescription",
          "type": "string"
        }
      ],
      "name": "addPatient",
      "outputs": [
        {
          "name": "",
          "type": "bool"
        }
      ],
      "payable": false,
      "stateMutability": "nonpayable",
      "type": "function"
    },
    {
      "constant": true,
      "inputs": [
        {
          "name": "recordInt",
          "type": "uint256"
        }
      ],
      "name": "getPatient",
      "outputs": [
        {
          "name": "",
          "type": "uint256"
        },
        {
          "name": "",
          "type": "string"
        },
        {
          "name": "",
          "type": "string"
        },
        {
          "name": "",
          "type": "string"
        },
        {
          "name": "",
          "type": "string"
        },
        {
          "name": "",
          "type": "string"
        },
        {
          "name": "",
          "type": "address[]"
        }
      ],
      "payable": false,
      "stateMutability": "view",
      "type": "function"
    }
  ],
  "bytecode": "0x608060405233600260006101000a81548173ffffffffffffffffffffffffffffffffffffffff021916908373ffffffffffffffffffffffffffffffffffffffff16021790555034801561005157600080fd5b50611636806100616000396000f3fe608060405260043610610078576000357c0100000000000000000000000000000000000000000000000000000000900463ffffffff1680630869cfbc1461007d57806334461067146100e657806356fa82171461034a5780637d3a6796146106865780638da5cb5b14610939578063d196b8ed14610990575b600080fd5b34801561008957600080fd5b506100cc600480360360208110156100a057600080fd5b81019080803573ffffffffffffffffffffffffffffffffffffffff1690602001909291905050506109bb565b604051808215151515815260200191505060405180910390f35b3480156100f257600080fd5b5061011f6004803603602081101561010957600080fd5b81019080803590602001909291905050506109db565b60405180806020018060200180602001806020018060200186810386528b818151815260200191508051906020019080838360005b8381101561016f578082015181840152602081019050610154565b50505050905090810190601f16801561019c5780820380516001836020036101000a031916815260200191505b5086810385528a818151815260200191508051906020019080838360005b838110156101d55780820151818401526020810190506101ba565b50505050905090810190601f1680156102025780820380516001836020036101000a031916815260200191505b50868103845289818151815260200191508051906020019080838360005b8381101561023b578082015181840152602081019050610220565b50505050905090810190601f1680156102685780820380516001836020036101000a031916815260200191505b50868103835288818151815260200191508051906020019080838360005b838110156102a1578082015181840152602081019050610286565b50505050905090810190601f1680156102ce5780820380516001836020036101000a031916815260200191505b50868103825287818151815260200191508051906020019080838360005b838110156103075780820151818401526020810190506102ec565b50505050905090810190601f1680156103345780820380516001836020036101000a031916815260200191505b509a505050505050505050505060405180910390f35b34801561035657600080fd5b5061066c600480360360a081101561036d57600080fd5b810190808035906020019064010000000081111561038a57600080fd5b82018360208201111561039c57600080fd5b803590602001918460018302840111640100000000831117156103be57600080fd5b91908080601f016020809104026020016040519081016040528093929190818152602001838380828437600081840152601f19601f8201169050808301925050505050505091929192908035906020019064010000000081111561042157600080fd5b82018360208201111561043357600080fd5b8035906020019184600183028401116401000000008311171561045557600080fd5b91908080601f016020809104026020016040519081016040528093929190818152602001838380828437600081840152601f19601f820116905080830192505050505050509192919290803590602001906401000000008111156104b857600080fd5b8201836020820111156104ca57600080fd5b803590602001918460018302840111640100000000831117156104ec57600080fd5b91908080601f016020809104026020016040519081016040528093929190818152602001838380828437600081840152601f19601f8201169050808301925050505050505091929192908035906020019064010000000081111561054f57600080fd5b82018360208201111561056157600080fd5b8035906020019184600183028401116401000000008311171561058357600080fd5b91908080601f016020809104026020016040519081016040528093929190818152602001838380828437600081840152601f19601f820116905080830192505050505050509192919290803590602001906401000000008111156105e657600080fd5b8201836020820111156105f857600080fd5b8035906020019184600183028401116401000000008311171561061a57600080fd5b91908080601f016020809104026020016040519081016040528093929190818152602001838380828437600081840152601f19601f820116905080830192505050505050509192919290505050610d18565b604051808215151515815260200191505060405180910390f35b34801561069257600080fd5b506106bf600480360360208110156106a957600080fd5b810190808035906020019092919050505061102a565b6040518088815260200180602001806020018060200180602001806020018060200187810387528d818151815260200191508051906020019080838360005b838110156107195780820151818401526020810190506106fe565b50505050905090810190601f1680156107465780820380516001836020036101000a031916815260200191505b5087810386528c818151815260200191508051906020019080838360005b8381101561077f578082015181840152602081019050610764565b50505050905090810190601f1680156107ac5780820380516001836020036101000a031916815260200191505b5087810385528b818151815260200191508051906020019080838360005b838110156107e55780820151818401526020810190506107ca565b50505050905090810190601f1680156108125780820380516001836020036101000a031916815260200191505b5087810384528a818151815260200191508051906020019080838360005b8381101561084b578082015181840152602081019050610830565b50505050905090810190601f1680156108785780820380516001836020036101000a031916815260200191505b50878103835289818151815260200191508051906020019080838360005b838110156108b1578082015181840152602081019050610896565b50505050905090810190601f1680156108de5780820380516001836020036101000a031916815260200191505b50878103825288818151815260200191508051906020019060200280838360005b8381101561091a5780820151818401526020810190506108ff565b505050509050019d505050505050505050505050505060405180910390f35b34801561094557600080fd5b5061094e61142f565b604051808273ffffffffffffffffffffffffffffffffffffffff1673ffffffffffffffffffffffffffffffffffffffff16815260200191505060405180910390f35b34801561099c57600080fd5b506109a5611455565b6040518082815260200191505060405180910390f35b60016020528060005260406000206000915054906101000a900460ff1681565b6000818154811015156109ea57fe5b9060005260206000209060060201600091509050806000018054600181600116156101000203166002900480601f016020809104026020016040519081016040528092919081815260200182805460018160011615610100020316600290048015610a965780601f10610a6b57610100808354040283529160200191610a96565b820191906000526020600020905b815481529060010190602001808311610a7957829003601f168201915b505050505090806001018054600181600116156101000203166002900480601f016020809104026020016040519081016040528092919081815260200182805460018160011615610100020316600290048015610b345780601f10610b0957610100808354040283529160200191610b34565b820191906000526020600020905b815481529060010190602001808311610b1757829003601f168201915b505050505090806002018054600181600116156101000203166002900480601f016020809104026020016040519081016040528092919081815260200182805460018160011615610100020316600290048015610bd25780601f10610ba757610100808354040283529160200191610bd2565b820191906000526020600020905b815481529060010190602001808311610bb557829003601f168201915b505050505090806003018054600181600116156101000203166002900480601f016020809104026020016040519081016040528092919081815260200182805460018160011615610100020316600290048015610c705780601f10610c4557610100808354040283529160200191610c70565b820191906000526020600020905b815481529060010190602001808311610c5357829003601f168201915b505050505090806004018054600181600116156101000203166002900480601f016020809104026020016040519081016040528092919081815260200182805460018160011615610100020316600290048015610d0e5780601f10610ce357610100808354040283529160200191610d0e565b820191906000526020600020905b815481529060010190602001808311610cf157829003601f168201915b5050505050905085565b6000808651111515610d92576040517f08c379a000000000000000000000000000000000000000000000000000000000815260040180806020018281038252601c8152602001807f41646d697373696f6e204e756d6265722069732072657175697265640000000081525060200191505060405180910390fd5b60008551111515610e0b576040517f08c379a00000000000000000000000000000000000000000000000000000000081526004018080602001828103825260188152602001807f50617469656e74204e616d65206973207265717569726564000000000000000081525060200191505060405180910390fd5b6009865111151515610e85576040517f08c379a00000000000000000000000000000000000000000000000000000000081526004018080602001828103825260158152602001807f41646d697373696f6e204c656e6774682069732039000000000000000000000081525060200191505060405180910390fd5b610e8d611461565b7f6f32500025918c94a04c1946df9cddf4638e096a856c3d8f0d23f1dd15d7680b60405160405180910390a1868160000181905250858160200181905250848160400181905250838160600181905250828160800181905250600081908060018154018082558091505090600182039060005260206000209060060201600090919290919091506000820151816000019080519060200190610f30929190611498565b506020820151816001019080519060200190610f4d929190611498565b506040820151816002019080519060200190610f6a929190611498565b506060820151816003019080519060200190610f87929190611498565b506080820151816004019080519060200190610fa4929190611498565b5060a0820151816005019080519060200190610fc1929190611518565b5050505060018060003373ffffffffffffffffffffffffffffffffffffffff1673ffffffffffffffffffffffffffffffffffffffff16815260200190815260200160002060006101000a81548160ff021916908315150217905550600191505095945050505050565b6000606080606080606080600080805490501115611423576000808981548110151561105257fe5b9060005260206000209060060201905088816000018260010183600201846003018560040186600501858054600181600116156101000203166002900480601f0160208091040260200160405190810160405280929190818152602001828054600181600116156101000203166002900480156111105780601f106110e557610100808354040283529160200191611110565b820191906000526020600020905b8154815290600101906020018083116110f357829003601f168201915b50505050509550848054600181600116156101000203166002900480601f0160208091040260200160405190810160405280929190818152602001828054600181600116156101000203166002900480156111ac5780601f10611181576101008083540402835291602001916111ac565b820191906000526020600020905b81548152906001019060200180831161118f57829003601f168201915b50505050509450838054600181600116156101000203166002900480601f0160208091040260200160405190810160405280929190818152602001828054600181600116156101000203166002900480156112485780601f1061121d57610100808354040283529160200191611248565b820191906000526020600020905b81548152906001019060200180831161122b57829003601f168201915b50505050509350828054600181600116156101000203166002900480601f0160208091040260200160405190810160405280929190818152602001828054600181600116156101000203166002900480156112e45780601f106112b9576101008083540402835291602001916112e4565b820191906000526020600020905b8154815290600101906020018083116112c757829003601f168201915b50505050509250818054600181600116156101000203166002900480601f0160208091040260200160405190810160405280929190818152602001828054600181600116156101000203166002900480156113805780601f1061135557610100808354040283529160200191611380565b820191906000526020600020905b81548152906001019060200180831161136357829003601f168201915b505050505091508080548060200260200160405190810160405280929190818152602001828054801561140857602002820191906000526020600020905b8160009054906101000a900473ffffffffffffffffffffffffffffffffffffffff1673ffffffffffffffffffffffffffffffffffffffff16815260200190600101908083116113be575b50505050509050975097509750975097509750975050611424565b5b919395979092949650565b600260009054906101000a900473ffffffffffffffffffffffffffffffffffffffff1681565b60008080549050905090565b60c0604051908101604052806060815260200160608152602001606081526020016060815260200160608152602001606081525090565b828054600181600116156101000203166002900490600052602060002090601f016020900481019282601f106114d957805160ff1916838001178555611507565b82800160010185558215611507579182015b828111156115065782518255916020019190600101906114eb565b5b50905061151491906115a2565b5090565b828054828255906000526020600020908101928215611591579160200282015b828111156115905782518260006101000a81548173ffffffffffffffffffffffffffffffffffffffff021916908373ffffffffffffffffffffffffffffffffffffffff16021790555091602001919060010190611538565b5b50905061159e91906115c7565b5090565b6115c491905b808211156115c05760008160009055506001016115a8565b5090565b90565b61160791905b8082111561160357600081816101000a81549073ffffffffffffffffffffffffffffffffffffffff0219169055506001016115cd565b5090565b9056fea165627a7a72305820e8e7c999bf8f24c3c89eecf1519000a7da18f6524e9d11e74c9195d5efe4055f0029",
  "source": "pragma solidity ^0.5.0;\r\n \r\n/** @title Medical Record. */\r\ncontract Medical {\r\n/** @dev Adds a new patient and gets the patient record.\r\n    * @param admissionNo The admission number of the patient.\r\n    * @param name The name of the patient.\r\n    * @param hospital The name of the hospital.\r\n    * @param doctor The name of the patients doctor.\r\n    * @param prescription The name of the patients prescription.\r\n    * @return recordInt Returns the patients record number.\r\n*/\r\n \r\n    /** @dev Custom defined types for the patient record. */\r\n    struct Record {\r\n        string admissionNo;\r\n        string name;\r\n        string hospital;\r\n        string doctor;\r\n        string prescription;\r\n        address[] patientsAddress;\r\n    }\r\n \r\n    /** @dev Records array */\r\n    Record[] public records;\r\n    \r\n    mapping(address => bool) public patients;\r\n    \r\n    address public owner = msg.sender;\r\n    event CreatedPatientEvent();\r\n    \r\n    /** @dev Restrict read access to contract’s state by other contracts */\r\n    modifier onlyBy(address _account)\r\n    {\r\n        require(\r\n            msg.sender == _account,\r\n            \"Sender not authorized.\"\r\n        );\r\n        _;\r\n    }\r\n        \r\n    /** @dev Returns the number of patients. */\r\n    function getNumPatients() public view \r\n        //onlyBy(owner)\r\n        returns (uint) {\r\n            return records.length;\r\n    }\r\n    \r\n    /** @dev Adds a new patient record. */\r\n     function addPatient(string memory _admissionNo, string memory _name, string memory _hospital, string memory _doctor, string memory _prescription)  public \r\n     //onlyBy(owner)  //restrict access\r\n     returns (bool) {\r\n        require(bytes(_admissionNo).length > 0, \"Admission Number is required\"); //check the admission number is entered\r\n        require(bytes(_name).length > 0, \"Patient Name is required\"); //check the patient name is entered\r\n        require(bytes(_admissionNo).length <= 9, \"Admission Length is 9\"); //check the admission number length is 9 characters\r\n        \r\n        Record memory record;\r\n        emit CreatedPatientEvent();  //update the event\r\n        \r\n        record.admissionNo = _admissionNo;\r\n        record.name = _name;\r\n        record.hospital = _hospital;\r\n        record.doctor = _doctor;\r\n        record.prescription = _prescription;\r\n        \r\n        records.push(record); //add the patient record\r\n        \r\n        patients[msg.sender] = true; //update to true\r\n        return true;\r\n    }\r\n \r\n    /** @dev Gets the patient record based on the record id. */\r\n    function getPatient(uint recordInt) public view \r\n    //onlyBy(owner)  //restrict access\r\n    returns (uint, string memory, string memory, string memory, string memory, string memory, address[] memory) {\r\n        if (records.length > 0) {  //check the record length is greater than 0\r\n            Record storage p = records[recordInt]; // Get the record\r\n            return (recordInt, p.admissionNo, p.name, p.hospital, p.doctor, p.prescription, p.patientsAddress);  //return the record set based on the id\r\n        }\r\n    }\r\n}",
  "sourcePath": "C:/MedicalSystem-master/MedicalSystem/contracts/Medical.sol",
  "compiler": {
    "name": "solc",
    "version": "0.5.0+commit.1d4f565a.Emscripten.clang"
  },
  "schemaVersion": "3.0.9",
  "updatedAt": "2019-05-17T15:17:09.487Z",
  "devdoc": {
    "methods": {
      "addPatient(string,string,string,string,string)": {
        "details": "Adds a new patient record. "
      },
      "getNumPatients()": {
        "details": "Returns the number of patients. "
      },
      "getPatient(uint256)": {
        "details": "Gets the patient record based on the record id. "
      }
    },
    "title": "Medical Record. "
  },
  "userdoc": {
    "methods": {}
  }
}